{
  "_format": "hh-sol-artifact-1",
  "contractName": "MemberVotes",
  "sourceName": "contracts/MemberVotes.sol",
  "abi": [
    {
      "anonymous": false,
      "inputs": [
        {
          "indexed": true,
          "internalType": "address",
          "name": "previousOwner",
          "type": "address"
        },
        {
          "indexed": true,
          "internalType": "address",
          "name": "newOwner",
          "type": "address"
        }
      ],
      "name": "OwnershipTransferred",
      "type": "event"
    },
    {
      "anonymous": false,
      "inputs": [
        {
          "indexed": false,
          "internalType": "uint256",
          "name": "totalVotes",
          "type": "uint256"
        }
      ],
      "name": "VoteCasted",
      "type": "event"
    },
    {
      "inputs": [
        {
          "internalType": "address",
          "name": "_voterAddress",
          "type": "address"
        }
      ],
      "name": "addMember",
      "outputs": [],
      "stateMutability": "nonpayable",
      "type": "function"
    },
    {
      "inputs": [
        {
          "internalType": "address",
          "name": "_voterAddress",
          "type": "address"
        }
      ],
      "name": "isMember",
      "outputs": [
        {
          "internalType": "bool",
          "name": "",
          "type": "bool"
        }
      ],
      "stateMutability": "view",
      "type": "function"
    },
    {
      "inputs": [
        {
          "internalType": "address",
          "name": "",
          "type": "address"
        }
      ],
      "name": "members",
      "outputs": [
        {
          "internalType": "bool",
          "name": "hasVoted",
          "type": "bool"
        },
        {
          "internalType": "bool",
          "name": "exists",
          "type": "bool"
        }
      ],
      "stateMutability": "view",
      "type": "function"
    },
    {
      "inputs": [],
      "name": "owner",
      "outputs": [
        {
          "internalType": "address",
          "name": "",
          "type": "address"
        }
      ],
      "stateMutability": "view",
      "type": "function"
    },
    {
      "inputs": [],
      "name": "proposalName",
      "outputs": [
        {
          "internalType": "string",
          "name": "",
          "type": "string"
        }
      ],
      "stateMutability": "view",
      "type": "function"
    },
    {
      "inputs": [],
      "name": "renounceOwnership",
      "outputs": [],
      "stateMutability": "nonpayable",
      "type": "function"
    },
    {
      "inputs": [
        {
          "internalType": "string",
          "name": "_name",
          "type": "string"
        }
      ],
      "name": "setProposalName",
      "outputs": [],
      "stateMutability": "nonpayable",
      "type": "function"
    },
    {
      "inputs": [],
      "name": "totalvotes",
      "outputs": [
        {
          "internalType": "uint256",
          "name": "",
          "type": "uint256"
        }
      ],
      "stateMutability": "view",
      "type": "function"
    },
    {
      "inputs": [
        {
          "internalType": "address",
          "name": "newOwner",
          "type": "address"
        }
      ],
      "name": "transferOwnership",
      "outputs": [],
      "stateMutability": "nonpayable",
      "type": "function"
    },
    {
      "inputs": [],
      "name": "vote",
      "outputs": [],
      "stateMutability": "nonpayable",
      "type": "function"
    }
  ],
  "bytecode": "0x608060405234801561001057600080fd5b5061002d61002261003260201b60201c565b61003a60201b60201c565b6100fe565b600033905090565b60008060009054906101000a900473ffffffffffffffffffffffffffffffffffffffff169050816000806101000a81548173ffffffffffffffffffffffffffffffffffffffff021916908373ffffffffffffffffffffffffffffffffffffffff1602179055508173ffffffffffffffffffffffffffffffffffffffff168173ffffffffffffffffffffffffffffffffffffffff167f8be0079c531659141344cd1fd0a4f28419497f9722a3daafe3b4186f6b6457e060405160405180910390a35050565b610e538061010d6000396000f3fe608060405234801561001057600080fd5b506004361061009e5760003560e01c80638da5cb5b116100665780638da5cb5b14610122578063a230c52414610140578063ca6d56dc14610170578063f2fde38b1461018c578063fce112a9146101a85761009e565b806308ae4b0c146100a357806347383551146100d4578063632a9a52146100f05780636a2275db146100fa578063715018a614610118575b600080fd5b6100bd60048036038101906100b89190610934565b6101c6565b6040516100cb929190610b20565b60405180910390f35b6100ee60048036038101906100e9919061095d565b610204565b005b6100f861029a565b005b6101026103d8565b60405161010f9190610b49565b60405180910390f35b610120610466565b005b61012a6104ee565b6040516101379190610aea565b60405180910390f35b61015a60048036038101906101559190610934565b610517565b6040516101679190610b05565b60405180910390f35b61018a60048036038101906101859190610934565b610570565b005b6101a660048036038101906101a19190610934565b61064a565b005b6101b0610742565b6040516101bd9190610bcb565b60405180910390f35b60036020528060005260406000206000915090508060000160009054906101000a900460ff16908060000160019054906101000a900460ff16905082565b61020c610748565b73ffffffffffffffffffffffffffffffffffffffff1661022a6104ee565b73ffffffffffffffffffffffffffffffffffffffff1614610280576040517f08c379a000000000000000000000000000000000000000000000000000000000815260040161027790610bab565b60405180910390fd5b8060019080519060200190610296929190610814565b5050565b600360003373ffffffffffffffffffffffffffffffffffffffff1673ffffffffffffffffffffffffffffffffffffffff16815260200190815260200160002060000160009054906101000a900460ff161561032a576040517f08c379a000000000000000000000000000000000000000000000000000000000815260040161032190610b8b565b60405180910390fd5b6001600360003373ffffffffffffffffffffffffffffffffffffffff1673ffffffffffffffffffffffffffffffffffffffff16815260200190815260200160002060000160006101000a81548160ff0219169083151502179055506002600081548092919061039890610d1f565b91905055507f94b9b209597b37568a0fb4b924237e6e679e8e7bb88cf375dbcf4229c2d5e6426002546040516103ce9190610bcb565b60405180910390a1565b600180546103e590610ced565b80601f016020809104026020016040519081016040528092919081815260200182805461041190610ced565b801561045e5780601f106104335761010080835404028352916020019161045e565b820191906000526020600020905b81548152906001019060200180831161044157829003601f168201915b505050505081565b61046e610748565b73ffffffffffffffffffffffffffffffffffffffff1661048c6104ee565b73ffffffffffffffffffffffffffffffffffffffff16146104e2576040517f08c379a00000000000000000000000000000000000000000000000000000000081526004016104d990610bab565b60405180910390fd5b6104ec6000610750565b565b60008060009054906101000a900473ffffffffffffffffffffffffffffffffffffffff16905090565b6000600360008373ffffffffffffffffffffffffffffffffffffffff1673ffffffffffffffffffffffffffffffffffffffff16815260200190815260200160002060000160019054906101000a900460ff169050919050565b610578610748565b73ffffffffffffffffffffffffffffffffffffffff166105966104ee565b73ffffffffffffffffffffffffffffffffffffffff16146105ec576040517f08c379a00000000000000000000000000000000000000000000000000000000081526004016105e390610bab565b60405180910390fd5b6001600360008373ffffffffffffffffffffffffffffffffffffffff1673ffffffffffffffffffffffffffffffffffffffff16815260200190815260200160002060000160016101000a81548160ff02191690831515021790555050565b610652610748565b73ffffffffffffffffffffffffffffffffffffffff166106706104ee565b73ffffffffffffffffffffffffffffffffffffffff16146106c6576040517f08c379a00000000000000000000000000000000000000000000000000000000081526004016106bd90610bab565b60405180910390fd5b600073ffffffffffffffffffffffffffffffffffffffff168173ffffffffffffffffffffffffffffffffffffffff161415610736576040517f08c379a000000000000000000000000000000000000000000000000000000000815260040161072d90610b6b565b60405180910390fd5b61073f81610750565b50565b60025481565b600033905090565b60008060009054906101000a900473ffffffffffffffffffffffffffffffffffffffff169050816000806101000a81548173ffffffffffffffffffffffffffffffffffffffff021916908373ffffffffffffffffffffffffffffffffffffffff1602179055508173ffffffffffffffffffffffffffffffffffffffff168173ffffffffffffffffffffffffffffffffffffffff167f8be0079c531659141344cd1fd0a4f28419497f9722a3daafe3b4186f6b6457e060405160405180910390a35050565b82805461082090610ced565b90600052602060002090601f0160209004810192826108425760008555610889565b82601f1061085b57805160ff1916838001178555610889565b82800160010185558215610889579182015b8281111561088857825182559160200191906001019061086d565b5b509050610896919061089a565b5090565b5b808211156108b357600081600090555060010161089b565b5090565b60006108ca6108c584610c17565b610be6565b9050828152602081018484840111156108e257600080fd5b6108ed848285610cab565b509392505050565b60008135905061090481610e06565b92915050565b600082601f83011261091b57600080fd5b813561092b8482602086016108b7565b91505092915050565b60006020828403121561094657600080fd5b6000610954848285016108f5565b91505092915050565b60006020828403121561096f57600080fd5b600082013567ffffffffffffffff81111561098957600080fd5b6109958482850161090a565b91505092915050565b6109a781610c63565b82525050565b6109b681610c75565b82525050565b60006109c782610c47565b6109d18185610c52565b93506109e1818560208601610cba565b6109ea81610df5565b840191505092915050565b6000610a02602683610c52565b91507f4f776e61626c653a206e6577206f776e657220697320746865207a65726f206160008301527f64647265737300000000000000000000000000000000000000000000000000006020830152604082019050919050565b6000610a68601783610c52565b91507f596f75206861766520616c726561647920766f746564210000000000000000006000830152602082019050919050565b6000610aa8602083610c52565b91507f4f776e61626c653a2063616c6c6572206973206e6f7420746865206f776e65726000830152602082019050919050565b610ae481610ca1565b82525050565b6000602082019050610aff600083018461099e565b92915050565b6000602082019050610b1a60008301846109ad565b92915050565b6000604082019050610b3560008301856109ad565b610b4260208301846109ad565b9392505050565b60006020820190508181036000830152610b6381846109bc565b905092915050565b60006020820190508181036000830152610b84816109f5565b9050919050565b60006020820190508181036000830152610ba481610a5b565b9050919050565b60006020820190508181036000830152610bc481610a9b565b9050919050565b6000602082019050610be06000830184610adb565b92915050565b6000604051905081810181811067ffffffffffffffff82111715610c0d57610c0c610dc6565b5b8060405250919050565b600067ffffffffffffffff821115610c3257610c31610dc6565b5b601f19601f8301169050602081019050919050565b600081519050919050565b600082825260208201905092915050565b6000610c6e82610c81565b9050919050565b60008115159050919050565b600073ffffffffffffffffffffffffffffffffffffffff82169050919050565b6000819050919050565b82818337600083830152505050565b60005b83811015610cd8578082015181840152602081019050610cbd565b83811115610ce7576000848401525b50505050565b60006002820490506001821680610d0557607f821691505b60208210811415610d1957610d18610d97565b5b50919050565b6000610d2a82610ca1565b91507fffffffffffffffffffffffffffffffffffffffffffffffffffffffffffffffff821415610d5d57610d5c610d68565b5b600182019050919050565b7f4e487b7100000000000000000000000000000000000000000000000000000000600052601160045260246000fd5b7f4e487b7100000000000000000000000000000000000000000000000000000000600052602260045260246000fd5b7f4e487b7100000000000000000000000000000000000000000000000000000000600052604160045260246000fd5b6000601f19601f8301169050919050565b610e0f81610c63565b8114610e1a57600080fd5b5056fea2646970667358221220678dcfad531129d1b52e7a06aaf747b52c7d651761f9e09a8e1c49ec313f653964736f6c63430008000033",
  "linkReferences": {},
  "deployedLinkReferences": {}
}